:0200000460207A
:1020000000802020F5222060852320608723206027
:1020100000000000612823600000000000000000B4
:10202000000000000000000000000000912320607C
:102030000000000000000000C1232060056D226048
:102040008D582260A1582260632823606B2823608A
:10205000732823607B282360832823608B282360D8
:10206000932823609B282360A3282360AB28236048
:10207000B3282360BB282360C3282360CB282360B8
:10208000D3282360DB282360E3282360EB28236028
:102090005B5E2360695E2360775E2360855E2360FC
:1020A000935E2360A15E2360AF5E2360BD5E23600C
:1020B000F3282360FB282360032923600B29236076
:1020C000132923601B292360232923602B292360E4
:1020D000332923603B292360432923604B29236054
:1020E000532923605B292360632923606B292360C4
:1020F000732923607B292360832923608B29236034
:10210000932923609B292360A3292360AB292360A3
:10211000B3292360BB292360C3292360CB29236013
:10212000D3292360DB2923602D60226011602260A7
:10213000E3292360EB292360F3292360FB29236033
:10214000032A23600B2A2360132A23601B2A23609F
:10215000232A23602B2A2360332A23603B2A23600F
:10216000432A23604B2A2360532A23605B2A23607F
:10217000632A23606B2A2360732A23607B2A2360EF
:10218000832A23608B2A2360932A2360E5AF206093
:102190009B2A2360A32A2360AB2A2360B32A2360EF
:1021A000BD352060BB2A2360C32A2360CB2A23606D
:1021B000D32A2360DB2A2360E32A2360EB2A2360EF
:1021C000F32A2360FB2A2360032B23600B2B23605D
:1021D000132B23601B2B2360232B23602B2B2360CB
:1021E000332B23603B2B2360432B23604B2B23603B
:1021F000532B23605B2B2360632B23606B2B2360AB
:102200003D2C2260792C2260732B2360B1B82160B1
:102210007B2B2360832B23608B2B2360932B2360EA
:102220009B2B2360A32B2360AB2B2360B32B23605A
:10223000BB2B2360C32B2360CB2B2360D32B2360CA
:10224000DB2B2360E32B2360EB2B2360F32B23603A
:10225000FB2B2360032C23600B2C2360132C2360A7
:102260001B2C2360232C23602B2C2360332C236016
:102270003B2C2360432C23604B2C2360532C236086
:102280005B2C2360632C23606B2C2360732C2360F6
:102290007B2C2360832C23608B2C2360932C236066
:1022A0009B2C2360A32C2360AB2C2360B32C2360D6
:1022B000BB2C2360C32C2360A0743060000000207E
:1022C000DCD00200986530600000000000000000D3
:1022D0009865306000002020080F000000300320C7
:1022E000A0F502000000000000000000080F202000
:1022F0009045000010B582B072B606F0F1FF114BA8
:102300000193DDF804D01DF06DFC0F4B07E003F1E5
:102310000C049A685968186800F01CF823460B4AA8
:102320009342F4D306E01C46596854F8080B00F0B9
:1023300020F82346064A9342F5D362B636F053FEA0
:10234000FEE700BF00000820B8222060DC222060E9
:10235000F4222060002393420AD210B404680C6077
:102360000433043004319342F8D35DF8044B7047D2
:102370007047002303E000220260043304308B42E4
:10238000F9D37047FEE7FEE7FEE7FEE7FEE7FEE76C
:10239000074B19680868B0E8F04F80F30988BFF36D
:1023A0006F8F4FF0000080F311887047AFF300800B
:1023B000C01A062000BF00BFFFFFFFFFFFFFFFFFA7
:1023C000EFF30980BFF36F8F154B1A681EF0100FE3
:1023D00008BF20ED108A20E9F04F10602DE90900B8
:1023E0004FF0200080F31188BFF34F8FBFF36F8F42
:1023F00025F05CFC4FF0000080F3118809BC1968DF
:102400000868B0E8F04F1EF0100F08BFB0EC108A5B
:1024100080F30988BFF36F8F704700BFAFF3008070
:10242000C01A062000BF00BF2DE9F04890B004AFED
:102430000123FB626A4833F00EFC40F2311240F295
:102440000111674833F017FC4FF4997240F2011103
:10245000634833F010FC40F2251240F2011160484D
:1024600033F009FC4FF4937240F201115C4833F0F1
:1024700002FC07F1180318461AF0DCFF01233B7633
:1024800007F118031A46002156481AF07BFE03464E
:10249000012B01D1012397E007F118031A4601210E
:1024A00050481AF06FFE0346012B01D101238BE047
:1024B00007F118031A4603214A481AF063FE03463F
:1024C000012B01D101237FE0032017F025FBB86227
:1024D000BB6A1D464FF00006AB46B4464FF0000104
:1024E0004FF000024FEA8C0242EA9B724FEA8B01E6
:1024F0008B4694461BEB050B4CEB060C4FF0000192
:102500004FF000024FEA8C1242EA9B624FEA8B11B5
:102510001BEB010B4CEB020C1BEB0B034CEB0C0409
:102520009B46A446584661462BA3D3E9002336F0C8
:10253000ECFF03460C46FB8401233B740123BB7470
:1025400000237B74FB8CBB8201233B720123BB7293
:1025500000237B72FB8CBB8101233B700123BB708A
:1025600000237B70FB8CBB8007F11002BB6A0293D7
:10257000FB6A0193002300930123002119481AF0FC
:1025800093FF07F10802BB6A0293FB6A01930023E1
:1025900000930123012113481AF086FF3A46BB6AD3
:1025A0000293FB6A019300230093012303210D484A
:1025B0001AF07AFF01220B210A4833F0ACFB0B2101
:1025C000084833F08CFB002318463037BD46BDE881
:1025D000F08800BFAFF3008000CA9A3B0000000003
:1025E00000C03B4000003E4091ED007B2DE9F04FE4
:1025F0002DED088B99B09A4615468346DDF8AC90D0
:102600008DED047B059B079347F6F073079A33EA39
:1026100012432CD100230499EB70C2F313030B4334
:102620004FF06E031DD169216B70002A4FF06603D5
:102630002970AB7009DAB44B2A9A0326136030462E
:1026400019B0BDEC088BBDE8F08F1AF0020F06D16F
:102650001AF0040FAD4AAE4B18BF1346ECE7AD4B72
:10266000EAE761222B70AB706A70A94BE4E720F0B7
:102670002003412B00F051829DED047BB5EEC07B21
:10268000F1EE10FA34D5B1EE470B0123B5EE400B55
:102690000893F1EE10FA00F039820BA840F22D14E5
:1026A00000F0F2FB0B984FF47A734443A4F5AB545B
:1026B0001C3C94FBF3F48DED0C0B201AB7EE000BD1
:1026C00000F016FC002C8DED160B15DA634286A186
:1026D000D1E90001CDE91201DE0715D45B109DEDB3
:1026E000127B9DED126B27EE067B8DED127BF3E7DF
:1026F0009DED040B0023C9E74FF000008649CDE9AA
:1027000012010BD02346E7E79DED127B9DED166B82
:10271000012B27EE067B8DED167BDFD19DED0C5B4B
:102720009DED166B85EE067BB2EE046B9FED705B44
:102730008DED0E7B9DED0E7BB4EEC57BF1EE10FAB8
:1027400075D4B2EE045B9FED6C6BB0EE468B9DEDE5
:102750000E7BB4EEC67BF1EE10FA76DA84EAE4760C
:10276000B1EE04BB9DED0E7B9FED65AB9FED5E9BD7
:10277000FDEEC77BA6EBE47617EE907A0B9807EE9A
:10278000907A201AB8EEE70B00F0B2FB002C8DED2A
:102790000E0B8DED10AB66DA8DED129B8DED14AB4B
:1027A000DDE912019DED126B002041EC170B9DED50
:1027B000145B36EE476B36EE056B8DED146B8DEDCD
:1027C000127B9DED126BB7EE007BA6EE4B7B87EE86
:1027D0000B6B8DED146BB0EE004B3346D80752D423
:1027E0005B109DED125B9DED147B9DED146BA5EED2
:1027F000047B27EE067B8DED147B9DED127B9DED1A
:10280000126B27EE067B8DED127BDDE912019DED4B
:10281000126B002041EC170B9DED145B36EE476BFD
:1028200036EE056B8DED146B8DED127BD6E79DEDCD
:102830000E7B013C27EE067B8DED0E7B9DED164B4E
:1028400084EE067B8DED167B74E79DED0E4B013417
:1028500084EE057B8DED0E7B9DED167B27EE057BD3
:102860008DED167B73E78DED12BB8DED14ABB2D100
:102870009DED0E6B9DED0C7BB4EEC76BF1EE10FA87
:102880004CD9013F7AE79DED0E5B9DED146B9DEDFC
:10289000127B9DED142B9DED103B012B37EE027B3F
:1028A00027EE037BA5EE067B8DED107B9DED127B65
:1028B0009DED0E6B27EE067B8DED0E7BDDE90E01A7
:1028C0009DED0E5B4FF0000041EC160B9DED107B73
:1028D00035EE465B35EE075B8DED105B8DED0E6BD7
:1028E0007FF47EAFC4E700BF9A9999999999C93F3F
:1028F00000000000006AF8400000000080842E41C3
:1029000000000000000000006065306096633060E9
:10291000AF63306030653060000014409DED0E6B99
:102920009DED0C7B37EE467B8DED0C7B9DED106BAA
:102930009DED0C7B37EE467B8DED0C7B9DED166B94
:102940009DED0C5B85EE067B8DED0C7B9DED0C7B90
:1029500027EE087B8DED0C7B9DED0C7BFDEEC77BA0
:1029600017EE906A06EE906A9DED0C7BB8EEE66B72
:1029700037EE467B27EE087B8DED0C7B9DED0C7BC7
:10298000FDEEC77B17EE908AB8F1000FC0F28C8085
:10299000C64B984500F38E80002EC0F29180C34B49
:1029A0009E4200F39380C2498F4200F39580C14B51
:1029B0000A20C14A013C96FBF3F198FBF3F302FBBA
:1029C000016602FB038800FB071700FB063600FBCD
:1029D00008F8302329463846053401F8063B0993A8
:1029E00036F038FC05F10C01304636F033FC05F1C9
:1029F0001201404636F02EFC099BEB7400232B7528
:102A0000089B43EA8404E10740F18980AB4B2A9A92
:102A100024F00104BBF1610F13604FF0040394FB39
:102A2000F3F4D9F800300DD000F38580BBF1450FE9
:102A300000F08D80BBF1470F00F0E081BBF1410F4A
:102A400040F0DA81079A00260021C2F31307049AA6
:102A500042EA0608079A41EA0709C2F30A52002A25
:102A600000F0E780A2F2FF34002B40F0E8801AF07B
:102A7000080F40F0E480002A91489249234614BF91
:102A800031223022BBF1610F18BF014628462CF0DD
:102A900061F98D4A06460599884B13EA210338BF30
:102AA00013462A9A1360CAE508F57428013E08F512
:102AB000107869E7A8F574280136A8F5107868E75A
:102AC00006F57426013F06F5107665E7A6F574262F
:102AD0000137A6F5107663E79F427FF77AAF0A21A8
:102AE0006FF00903794A013497FBF1F003FB00779B
:102AF00002FB076797FBF1F603FB067702FB0788EB
:102B0000074608F1050898FBF1F862E74FF0000866
:102B10006FF00404464647465BE7002473E71AF06B
:102B2000020F06D11AF0040F6949674B18BF0B4614
:102B30006DE7684B6BE7BBF1660F00F07A81BBF184
:102B4000670F00F05B81BBF1650F40F05581D9F84C
:102B50000030112B05DD113B2D9A13601123C9F8AC
:102B60000030D9F800601AF4006706F1020604D1BB
:102B70003146284636F048FB04446B782B70D9F870
:102B8000003023B940F608031AEA030F68D02E2359
:102B90006B702D9B1B68002BC2BF3E23AB550136CB
:102BA00077B11AF0080F0BD1AA19561B12F8013D84
:102BB000302BFAD03E2BF8D02E2B08BF06F1FF3673
:102BC000002C06F1010305F806B006F10202BABFB7
:102BD00064422D212B21B4F57A7FE9540ADB4FF4AE
:102BE0007A7394FBF3F303F13001A9543A4A02FBE0
:102BF0000344F21C632C0ADD642394FBF3F303F11A
:102C00003001A9546FF06301013201FB03440A2330
:102C1000961C94FBF3F3DBB2303403F13001A9547A
:102C20001544C3EB4312C3EB820304EB43036B7005
:102C300005E558EA0901294C08BF002414E7002AD9
:102C40002748284914BF312230220294BBF1610F7A
:102C500018BF01462846CDE900892CF07BF818E71B
:102C6000012696E723449E1C122EC1BF113B2D9ACC
:102C70001326136077B93146284636F0C5FA48B1B5
:102C80007FEA040806F1010604D16B782B702E232D
:102C90006B70E4E0B8F1010F05EB06032BD15A1B72
:102CA000002A21DC01363023F0E700BF3F420F004D
:102CB0009F860100A08601006079FEFF606530609C
:102CC0003A65306032653060AF63306040420F007B
:102CD000966330603065306018FCFFFF01FCFFFF39
:102CE000516530604265306013F801299A70D6E76B
:102CF00013F80129DA705A1B002AF9DC30232C9AC8
:102D000002362B702E236B703C23AB7008F1FF331F
:102D10001360A4E004EB030808F10206122E4DDD57
:102D20007FBB1321284636F06FFA50B301341426C6
:102D3000721E2B46A24226DD5A7803F8012B5A1B3D
:102D40009442F9DA2B192E225A70D9F800301C441B
:102D50002D9B113C1C60002C40F08680002F41D040
:102D60001AF0080F7FF46BACAA19561B12F8013D3C
:102D7000302BFAD03E2BF8D02E2B7FF460AC013EE6
:102D80005DE41326D4E7597803F8011B591B8A42E6
:102D9000F9DCAB193C22A41B03F8012C2E222C9B3E
:102DA00002341C60731CAA55D9F80020002A65D093
:102DB0002D9902360A603E22EA54CFE73FB93146E8
:102DC000284636F021FA10B1013408F103062B46EB
:102DD0005A7803F8012B5A1B9442F9DA2C442E231B
:102DE0006370BBE7D9F80030002B7FF428AC1AF0F1
:102DF000080F7FF424ACC2E74FF0670B002B284686
:102E00004AF4006ADCBF0123C9F80030D9F8001089
:102E10001129A8BF1121013136F0F6F9D9F8003097
:102E20000444A34224DD221D22DB621C9B1AC9F844
:102E30000030002CD9F800300AF40067BFF66AAF02
:102E4000C4F100085A1C4245BFF60CAF30232D9A3E
:102E500002262B702E236B70D9F8003013602D9B47
:102E60001B68002B7FF77AAF3E23AB55013675E721
:102E7000013BABF1020BC9F8003068E61E46002F9B
:102E80007FF46EAFB3E700BFB5EE400BF7B5F1EEE0
:102E900010FA8DED000B05D100239FED130B03609D
:102EA00003B0F0BDDDE90023C3F30A51A1F2FE3502
:102EB00081B9C3F313040099CF0F04F4002649002D
:102EC00047EA4404C4F313040EB9013DF4E764F384
:102ED00013030A4640F2FE31056061F31E5343ECD2
:102EE000102BDDE7AFF300800000000000000000C1
:102EF000B5EE400B82B08DED000BF1EE10FA03D170
:102F00009FED0D0B02B07047DDE90023C3F30A51BA
:102F1000084440F2FE71884206DD094B22221A6005
:102F2000084B93ED000BEDE70028E9DD60F31E533D
:102F300043EC102BE6E700BF00000000000000009B
:102F400010FD0420E842276080B483B000AF034640
:102F5000FB80B7F90630002B0BDBFB8803F01F0268
:102F60000749B7F906305B09012000FA02F241F87F
:102F7000232000BF0C37BD465DF8047B704700BFBF
:102F800000E100E080B483B000AF03463960FB800D
:102F9000B7F90630002B0ADB3B68DAB20C49B7F907
:102FA00006301201D2B20B4483F800230AE03B68DA
:102FB000DAB20849FB8803F00F03043B1201D2B2D6
:102FC0000B441A7600BF0C37BD465DF8047B704792
:102FD00000E100E000ED00E080B584B000AF786073
:102FE00039607B689B0EFB607B68DAB21F4B134431
:102FF0001A687B685B13C3F30C017B681B1203F038
:103000001F0301FA03F3DB4302EA03017B681B128F
:1030100003F01F033A689A407B685B13C3F30C000C
:103020007B681B1203F01F0300FA03F31A407B684E
:10303000D8B20E4B0344184641EA02030360FB6812
:10304000202B02D90A482BF0AFFDFB68202B09D0BA
:1030500000BF064B9A6CFB6822FA03F303F00103EE
:10306000002BF6D100BF1037BD4680BD00C00F4019
:10307000F042276080B584B000AF786039607B682B
:103080009B0EFB607B68DAB21F4B13441A687B68A7
:103090005B13C3F30C017B681B1203F01F0301FADF
:1030A00003F3DB4302EA03017B681B1203F01F03F7
:1030B0003A689A407B685B13C3F30C007B681B1271
:1030C00003F01F0300FA03F31A407B68D8B20E4BDB
:1030D0000344184641EA02030360FB68202B02D92F
:1030E0000A482BF061FDFB68202B09D000BF064B7E
:1030F0009A6CFB6822FA03F303F00103002BF6D16C
:1031000000BF1037BD4680BD00C00F402C43276074
:1031100080B483B000AF78607B68DAB20C4B1344A4
:103120001A687B685B13C3F30C017B681B1203F006
:103130001F0301FA03F31A407B681B1203F01F03FD
:1031400022FA03F318460C37BD465DF8047B70473E
:1031500000C00F4080B500AF01220121024818F0E5
:1031600093FD00BF80BD00BF00000C4080B483B061
:1031700000AF03463960FB71044AFB79137000BF4E
:103180000C37BD465DF8047B704700BF7B250620E9
:1031900080B500AF1221002017F0D2F800210448BA
:1031A000FFF768FF01210348FFF716FF00BF80BD4E
:1031B00024EB00801C30008080B582B000AF00237B
:1031C0003B7100237B710323BB7106215820FFF75D
:1031D000D9FE58202CF078FE3B1D1A4600210548E8
:1031E00018F00CFD012103482CF084FE00BF0837C5
:1031F000BD4680BD00000C4080B500AF084B1B6889
:103200004FF4807118462CF0B6FE054B1B684FF446
:10321000807118462CF09EFE0023184680BD00BF2A
:10322000F066032090B583B000AF00237B60FFF70A
:10323000AFFF1E4B1E4A1A60002017F0B3F8044679
:103240001C48FFF765FF03460133B4FBF3F3174A4D
:103250005360164B184ADA62144B184A1A63052158
:103260006E20FFF78FFE114807F024FC78607B6822
:10327000002B05D0124807F05FF87B689BB211E085
:103280000A4B1868094B5B680E4A19461BF09CFDF7
:103290000246064B1A64054B1B680B4918461BF087
:1032A0004DFD002318460C37BD4690BDF066032047
:1032B00000002C4024EB008000B40220C0432760B3
:1032C00068432760801A06000467032080B58CB02D
:1032D00008AF00237B8100237B600023FB603B1D44
:1032E00006930023059300230493012303930023F3
:1032F0000293002301930023009301230422002161
:10330000012000F079F803467B813B1D06930023E2
:1033100005930523049301230393002302930023C1
:10332000019300230093012304220521002000F0D3
:1033300063F803467B817B89002B12D17B6803F005
:103340001B03002B14BF01230023DAB2294B83F89F
:103350003E207B68DBB203F01C03DAB2254B83F816
:103360004F203B1D0693002305930823049300235D
:10337000039300230293002301930023009301236E
:1033800004220321002000F037F803467B817B896B
:10339000002B03D17B681B0C164A5364FB68013376
:1033A000FB60FB68B3F5FA7F01D302231DE07B8944
:1033B000002B03D0012003F089FD90E77B683A1DC4
:1033C000069200220592012204920022039200221A
:1033D000029200220192009301230422072101207E
:1033E00000F00AF803467B817B8918461037BD46FA
:1033F00080BD00BFF066032090B595B000AF0446D5
:10340000084611461A462346FB710346BB710B461C
:103410007B7113467B800023A7F84E3007F14403ED
:1034200000221A605A6007F1200324220021184666
:1034300035F0E7FD07F10C0300221A605A609A602C
:10344000DA601A61BB793B623B6E7B6297F8703041
:1034500087F829307B6FFB637B6EFB61FB79012B67
:1034600002D17B6EFB6104E0FB79002B01D17B6E06
:10347000BB617B79002B06D13B6EC3F308037B61F4
:103480007B883B611DE07B79042B1AD101237B6192
:10349000B7F8683018462CF0A9FD03467B807B887E
:1034A000B3F5007F06D23A6E184B13407A88134367
:1034B0003B6603E03A6E154B13403B66B7F8683045
:1034C0003B6107F12003BB647B6E002B02D007F148
:1034D0000C0300E000237B640D4B9B6A0C4A1268CE
:1034E00007F14401104698470346002B02D040F2F2
:1034F000097307E0BB6F002B02D0FA6ABB6F1A603A
:10350000B7F84E3018465437BD4690BD00FEFFFF59
:10351000F066032080B582B000AF00237B600021FD
:103520001A4807F069F978607B68002B02D01848C8
:1035300006F002FF154B1868144B5B68154A1946D4
:103540001BF042FC0246114B1A64104B1B6C002B03
:1035500005D1114806F0F0FE40F2267312E00F4B41
:103560001B78022B06D1094B1B68012118462CF051
:1035700010FD05E0054B1B68002118462CF009FDE5
:103580007B689BB218460837BD4680BDF0660320B5
:103590008043276040787D01A04327607A2506207C
:1035A00080B500AF044B1B684FF4807118462CF0B7
:1035B000C0FC0023184680BDF066032080B500AF34
:1035C000064B1B680133054A1360012104482CF0A7
:1035D000A2FC03F0C7F900BF80BD00BF046903204F
:1035E00000000C4080B483B000AF03463960FB712B
:1035F000FB79002B04D1084B5A683B681A6003E042
:103600003B6840F216221A60002318460C37BD466C
:103610005DF8047B704700BF48212D6080B586B0FF
:1036200002AFB9607A603B600346FB73FB7B002B03
:1036300009D17B680093BB693A68B9680E482CF0E1
:1036400056FD034613E0BA6840F216239B1A3A6807
:103650009A4228BF1A46BB691A60BB68074A991884
:10366000BB691B681A46786835F0C7FC002318460A
:103670001037BD4680BD00BF48212D60D043276074
:1036800080B582B000AF786039607B68DB69032B5E
:1036900007D07B68DB6918462DF063FB0346002BDF
:1036A00026D138680DF00EF93B681B68002B11D04D
:1036B0003B681A893B685B899A420BD00F482FF010
:1036C000E0FC3B685B8919463B681B891A460C483D
:1036D0002FF0D7FC7B68DB691946386802F05EF989
:1036E000084B1B8801339AB2064B1A80002301E075
:1036F0006FF00C0318460837BD4680BDE8452760CB
:1037000000462760B0FB042080B58AB000AF786027
:1037100039607B68002B00F082807B685B68FB610E
:10372000FB699B899BB218462FF0E3FF03467B841D
:103730007B8CB3F5014F26D17B68596807F10C03E8
:103740000C22184635F059FC7B685B68043307F19E
:103750000C010C22184635F050FC7B685B681A1D82
:103760007B685A607B685B89043B9AB27B685A81AC
:103770007B685B68FB61FB699B899BB218462FF0F5
:10378000B8FF03467B847B8CB3F5006F03D040F613
:103790000602934234D1254B1B687B6202E07B6AB0
:1037A0001B687B627B6A002B04D07B6ADA693B680A
:1037B0009A42F4D17B6A002B0DD178680DF01EF887
:1037C0000346FB76FB7E002B02D1194815F012FF51
:1037D00000237B6026E0796A786815F055FE034681
:1037E000002B1ED078680DF009F80346FB76FB7EAF
:1037F000002B02D10E4815F0FDFE00237B6010E087
:1038000078680CF0FBFF0346FB76FB7E002B02D1B1
:10381000074815F0EFFE00237B6000BF02E000BF09
:1038200000E000BF2837BD4680BD00BFA8FB0420D4
:103830002046276080B582B000AF78607B68002B9F
:1038400002D1104815F0D6FE7B68DB69032B02D944
:103850006FF00F0311E07B68772283F82E207B68DE
:103860006C2283F82F207B68074A5A617B68074ADD
:103870009A6178682CF018FD002318460837BD4679
:1038800080BD00BF4046276019D620608136206089
:1038900080B586B000AFF860B9607A60FB689B7F46
:1038A000012B01D07B6812E0FB685B68102B03D111
:1038B000FB689B7F012B03D0FB685B68362B05D12F
:1038C0000021054803F0CEFA0346FB827B681846C8
:1038D0001837BD4680BD00BF0869032080B594B08D
:1038E00002AFF860B9607A60FB70002387F8473058
:1038F00001233B64BB68AB4A934207D0BB68AA4A2A
:10390000934203D0BB68A94A934208D1FB78072BA6
:1039100002D9FB78402B02D940F21643FDE103F0B7
:1039200097F80346012B04D001F0E8FC0346012B75
:1039300002D140F22443F0E107F114039C4A042130
:1039400018462DF049F9F863FB6B002B02D140F2C9
:103950000E43E2E1FB6B3A6C1A60796907F11802D9
:10396000002300202DF014F90346002B03D001237F
:1039700087F8473017E0BB6918462CF048FCB8635D
:10398000BB6B1B68012B09D1BB69012118462CF0C8
:1039900031FC012001F09CFC0023BEE1BB69012148
:1039A00018462CF027FC83482DF0CEFB0346FB86FF
:1039B000FB8E002B01D0FB8EAFE1012300227E495C
:1039C0007E4802F09DFD0346BB86BB8E002B04D0D3
:1039D00078482DF000FCBB8E9FE197F84730012B13
:1039E0000FD1002242F2107172482DF0DDFB034628
:1039F0007B867B8E002B04D06E482DF0ECFB7B8EFB
:103A00008BE101202CF0A2FC0346002B02D040F2F7
:103A10001F4382E107F11403694A282118462DF05B
:103A2000DBF8F863FB6B002B05D162482DF0D3FB6C
:103A300040F20E4371E1FB6B3A6C1A60FB681A7836
:103A4000FB6B04331A60FB6B03F10800FB68591C25
:103A5000FB681B781A4635F0D0FA796900230022FA
:103A600002202DF095F803463B863B8E002B04D0B8
:103A700050482DF0B0FB3B8E4FE107F114030421B9
:103A800018462DF0EFF8F863FB6B002B05D1494881
:103A90002DF0A1FB40F20E433FE197F85020FB6B65
:103AA0001A607A690123009300231E21022002F08C
:103AB000BDFA0346FB85FB8D002B04D03D482DF05D
:103AC0008AFBFB8D29E107F114033E4A08211846C1
:103AD0002DF082F8F863FB6B002B05D135482DF0F3
:103AE0007AFB40F20E4318E1FB6B3A6C1A60BB683C
:103AF00003F08053002B08D0BA68334B134043F0D7
:103B00004002FB6B04331A6003E0FB6B0433BA68BA
:103B10001A6079690023002202202DF039F803464B
:103B2000BB85BB8D002B04D022482DF054FBBB8DF0
:103B3000F3E0BB68002B7FD0BB68012B7CD0BB6857
:103B400048F20102934277D007F114031F4A08217B
:103B500018462DF041F8F863FB6B002B05D1154892
:103B60002DF039FB40F20E43D7E0FB6B3A6C1A6044
:103B7000BB680C4A934201D1042200E08422FB6B13
:103B800004331A6079690023002202202DF000F826
:103B900003467B857B8D002B1AD006482DF01BFB3E
:103BA0007B8DBAE0020020000400400006004000C7
:103BB0005C462760086903209138206050462760E2
:103BC000604627606C462760BFFFFFEF784627609E
:103BD00007F11403442118462DF044F878627B6AFB
:103BE000002B05D14F482DF0F6FA40F20E4394E039
:103BF0007B6A0433FA787968184635F0FEF9FB7869
:103C00009AB27B6A1A807B6A01225A80012003F0F3
:103C10005DF97A690123009300234FF48671022035
:103C200002F004FA03467B847B8C002B04D03D48D1
:103C30002DF0D1FA7B8C70E007F1140304211846B3
:103C40002DF010F8F863FB6B002B05D135482DF0F3
:103C5000C2FA40F20E4360E0FB6B01221A607A69FF
:103C60000123009300236E21022002F0DFF90346B6
:103C70003B843B8C002B09D03B8C40F2EC7293428E
:103C800004D028482DF0A7FA3B8C46E007F1140336
:103C9000254A042118462CF09FFFF863FB6B002B8C
:103CA00002D140F20E4338E0FB6B16221A607969AC
:103CB0000123002202202CF06BFF0346FB83FB8BC9
:103CC000002B04D017482DF086FAFB8B25E007F176
:103CD0001403042118462CF0C5FFF863FB6B002B7E
:103CE00005D110482DF077FA40F20E4315E0FB6B3A
:103CF00001221A607A690123009300234E210220D9
:103D000002F094F90346BB83BB8B002B04D005481B
:103D10002DF061FABB8B00E0002318464837BD4602
:103D200080BD00BF086903208846276080B588B041
:103D300002AFF860B9607A60FB70124BDB68013348
:103D4000104AD36000F09AF80346FB82FA7897F89D
:103D50002030009313467A68B968F868FFF7BEFD13
:103D60000346BB82074BDB68013B064AD360054B29
:103D7000DB68002B01D102F00BFEBB8A1846183716
:103D8000BD4680BD2CB4022080B584B000AF3B1D81
:103D9000204A082118462CF01FFFF860FB68002B12
:103DA00005D11D482DF017FA40F20E432DE00120F9
:103DB00002F0F6FC0246FB681A60FB68043301223D
:103DC0001A6079680023002202202CF0E1FE0346ED
:103DD0007B817B89002B04D00F482DF0FCF97B8977
:103DE00013E0002242F210710B482DF0DDF903467A
:103DF0003B813B89002B04D007482DF0ECF93B892F
:103E000003E0012001F064FA002318461037BD4694
:103E100080BD00BF5C4627600869032080B400AF06
:103E2000034B1B781846BD465DF8047B704700BF06
:103E30007C25062080B582B000AF032204210D4806
:103E40002CF000FB0346FB80FB88002B01D0FB8895
:103E50000CE00022042108482CF0F4FA0346BB8051
:103E6000BB88002B01D0BB8800E000231846083730
:103E7000BD4680BD104000184440001880B584B095
:103E800000AF294B1B78012B01D1002348E0274BC1
:103E90001B78002B37D10023FB714FF47A73FB6042
:103EA00010230122224901202CF03FFB03467B8195
:103EB0007B89002B01D07B8932E0FB1D01221C494C
:103EC00001202CF096FC03463B813B89002B01D05E
:103ED0003B8925E0FB68013BFB60FB795BB2002B73
:103EE00006DBFB68002B03D0012002F0EFFFE4E7C4
:103EF000FB68002B02D140F2FE3311E00A4B012295
:103F00001A7000230CE0012000F0D6F80346002BC5
:103F100004D1054B01221A70002301E040F2FE3368
:103F200018461037BD4680BD7C2506207D2506201D
:103F30000E00010080B500AF0D4B1B78012B13D193
:103F40000B4B00221A700B4B1B78002B07D1002360
:103F50000122094901202CF0E8FA034605E000207F
:103F600000F0AAF8034600E00023184680BD00BF19
:103F70007C2506207D2506200E00010080B584B03A
:103F800000AF00F07DF80346012B69D17B1C0122B4
:103F9000374901202CF02DFC0346FB81FB89002BC7
:103FA00001D0FB8960E07B7843F00203DBB27B70D9
:103FB0007B7801222E4901202CF0B7FA0346BB8101
:103FC000BB89002B01D0BB894EE008230122F021E0
:103FD00000202CF0AAFA03467B817B89002B01D0BC
:103FE0007B8941E002230122224901202CF09DFA25
:103FF00003463B813B89002B01D03B8934E07B1C8D
:1040000001221D4901202CF0F4FB0346FB80FB88B4
:10401000002B01D0FB8827E07B7803F00103002B05
:1040200011D17B7843F00103DBB27B707B780122F6
:10403000114901202CF079FA0346BB80BB88002B84
:1040400001D0BB8810E02CF0F4FB03467B807B881A
:10405000002B01D07B8807E0084B01221A7002E098
:10406000064B00221A70002318461037BD4680BD4B
:104070001E0001000E0001001F0001007D2506202A
:1040800080B582B000AF00237B603B1D1A4604213F
:1040900008482CF00FFA0346002B01D0002305E05E
:1040A0007B68002B01D0012300E00023184608376D
:1040B000BD4680BD0805001880B586B000AF034638
:1040C000FB710023FB7500237B7340233B61FB796D
:1040D000012B03D1FB7D43F00103FB75FB7D012226
:1040E000224901202CF021FAFB7D01221F490120E9
:1040F0002CF01BFAFB79012B04D10323BB75BB7D8C
:104100007B7503E00023BB7501237B7507F10D036D
:104110000122164901202CF06CFB0346FB817A7BBF
:104120007B7D1340DBB2BA7D9A4202D1FB89002B22
:104130000FD0012002F0CAFEFB7D01220B490120B5
:104140002CF0F3F93B69013B3B613B69002BDDD16E
:1041500000E000BF3B69002B02D140F2FE3300E0DB
:10416000002318461837BD4680BD00BF1F00010060
:1041700080B590B000AFAD4B00221A7000F044FF44
:1041800001202BF096FF01202BF09EFF012002F072
:104190009DFE00202BF08DFF012002F097FEFFF71F
:1041A00095F80346FB87FB8FFB86FB8E002B01D027
:1041B000FB8EDDE10023BB630223012202210020EC
:1041C0002CF0B3F90346BB86BB8E002B01D0BB8E0F
:1041D000CEE1BB6B002B02D0012002F077FE7B1DED
:1041E0000122022100202CF004FB03467B867B8EFB
:1041F000002B01D07B8EBBE1BB6B0133BB63BB6B80
:10420000B3F5FA7F01D30223B2E17B79022BD3D13C
:104210007B1D0122072100202CF0EBFA03463B8690
:104220003B8E002B01D03B8EA2E17B7923F0030370
:1042300043F002030122072100202CF076F9034607
:10424000FB85FB8D002B01D0FB8D91E1784B022289
:104250001A700023BB630BE0012002F037FEBB6B3A
:104260000133BB63BB6BB3F5FA7F01D302237FE15C
:1042700040230122102100202CF057F90346FB8730
:10428000FB8F002B11D17B1D0122102100202CF06F
:10429000B0FA0346FB87FB8F002B06D17B79402BBE
:1042A00003D0BB6BB3F5FA7FD6D3FB8FBB85BB8D39
:1042B000002B01D0BB8D5BE17B1D0122082100207A
:1042C0002CF097FA03467B857B8D002B01D07B8DEC
:1042D0004EE140230122102100202CF026F9034654
:1042E0003B853B8D002B01D03B8D41E140230122DA
:1042F0004FF4887100202CF018F90346FB84FB8CE6
:10430000002B01D0FB8C33E1402301224FF40471D8
:1043100000202CF00AF90346BB84BB8C002B01D093
:10432000BB8C25E10023012240F2112100202CF05A
:10433000FCF803467B847B8C002B01D07B8C17E13F
:1043400007230122042100202CF0EFF803463B84D0
:104350003B8C002B01D03B8C0AE1FFF7DBF80346D6
:10436000FB83FB8B002B01D0FB8B01E10023BB63A4
:1043700005E0012002F0AAFDBB6B0133BB637B1D8E
:104380000122032100202CF034FA0346FB87FB8F27
:10439000002B08D17B7903F00203002B03D1BB6B08
:1043A000B3F5FA7FE5D3BB6BB3F5FA7F01D30223F4
:1043B000DEE0FB8FBB83BB8B002B01D0BB8BD7E038
:1043C000292301221B4901202CF0AFF803467B83EF
:1043D0007B8B002B01D07B8BCAE00023BB6305E005
:1043E000012002F073FDBB6B0133BB637B1D012217
:1043F000104901202CF0FDF90346FB87FB8F002BB1
:1044000007D17B7903F04003002B02D1BB6B632BF8
:10441000E6D9BB6B632B01D90223A9E0FB8F3B8359
:104420003B8B002B08D03B8BA2E000BF7E250620F3
:104430007A2506200E000100002301224E490120AA
:104440002CF073F80346FB82FB8A002B01D0FB8A19
:104450008EE000230122494901202CF066F8034632
:10446000BB82BB8A002B01D0BB8A81E006230122DC
:10447000022100202CF059F803467B827B8A002B16
:1044800001D07B8A74E007230122F22100202CF066
:104490004CF803463B823B8A002B01D03B8A67E005
:1044A0002BF09CFD0346184600F0D4FA0346FB812E
:1044B000FB89002B01D0FB895AE02BF088FD0346D5
:1044C000BB81BB89002B01D0BB8951E005230122B0
:1044D000042100202CF029F803467B817B89002BE6
:1044E00001D07B8944E07B1D0122032100202CF0B8
:1044F00080F903463B813B89002B01D03B8937E0A3
:1045000000F086F90346FB87FB8F002B01D0FB8F61
:104510002EE00023BB6305E0012002F0D7FCBB6B5B
:104520000133BB637B1D0122032100202CF061F9C4
:104530000346FB87FB8F002B08D17B7903F0040334
:10454000002B03D1BB6BB3F57A7FE5D3BB6BB3F51F
:104550007A7F01D302230BE02BF006FFFFF78EFCDE
:104560000346FB80FB88002B01D0FB8800E0FB8F1B
:1045700018464037BD4680BD0E0001000F00010007
:1045800080B582B000AF00237B60FFF777FC034665
:10459000002B01D0002323E03B1D1A4604211248C2
:1045A0002BF088FF0346002B14D17B6803F08003B7
:1045B000002B11D0802204210B482BF043FF03462F
:1045C000002B0BD13B1D1A46042107482BF072FF2C
:1045D000012305E000BF02E000BF00E000BF0023B0
:1045E00018460837BD4680BD2020001880B582B02F
:1045F00000AF00233B60FFF741FC0346FB80FB88D4
:10460000002B01D0FB8823E03B461A4604211248C8
:104610002BF050FF0346002B02D000233B6014E038
:104620003B6803F0F003002B0DD03B6803F0F00370
:104630001A46042108482BF005FF0346002B02D040
:1046400000233B6001E0FEF7D7FD3B6803F0F00379
:1046500018460837BD4680BD2020001880B58AB0B6
:1046600002AF78607B6800221A60FFF707FC034600
:10467000BB83BB8B002B01D0BB8BC2E007F10803CF
:1046800010220021184634F0BCFC0023019307F1EE
:104690000803009304230022022100202BF07AFF5C
:1046A00003467B837B8B002B05D0002000F06AF94A
:1046B00040F20343A5E03A897B8913439BB2002B68
:1046C00007D03A897B8953409BB24FF6FF729342E1
:1046D00002D040F2044394E03B890C2B21D14B4B98
:1046E0001B78012B1DD10023019307F1080304332C
:1046F000009308230022022100202BF04BFF0346E9
:104700007B837B8B002B05D0002000F03BF940F22F
:10471000034376E007F10803184601F0C7F90023C8
:104720006FE03B89042B03D93B89043BFB8301E009
:104730000023FB83FB8B08339AB2002301217868A6
:104740002BF038FD03467B837B8B002B23D000238B
:10475000019307F108030433009308230022022188
:1047600000202BF017FF03467B837B8B002B05D0AB
:10477000002000F007F940F2034342E0002000F07F
:1047800001F903467B8307F10803184601F08EF90F
:1047900040F2054335E07B681B6818462BF037FD77
:1047A0000346043307F108010422184634F025FCBF
:1047B000FB8B002B21D07B681B6818462BF027FD54
:1047C00003460833F98B0022019200930B46002226
:1047D000022100202BF0DEFE03467B837B8B002B27
:1047E0000BD0002000F0CEF87B681B680121184632
:1047F0002BF000FD40F2034303E0012000F07CFBBE
:10480000002318462037BD4680BD00BF2CB40220CF
:1048100080B588B000AF0023FB71002100202CF090
:10482000C9F803467B837B8B002B01D07B8B9AE0FE
:10483000002101202CF0BEF803463B833B8B002B6C
:1048400001D03B8B8FE0002101202CF025F903469D
:10485000FB82FB8A002B01D0FB8A84E0FFF7EAFA97
:104860000346BB82BB8A002B01D0BB8A7BE02BF0C6
:10487000F7FF03467B827B8A0A2B04D13C4805F074
:104880005BFD7B8A6FE07B8A002B01D07B8A6AE02C
:1048900000F0C6FB03463B823B8A002B01D03B8ADB
:1048A00061E0002100202CF0F7F80346FB81FB8932
:1048B000002B01D0FB8956E000202CF03CF8034689
:1048C0007B827B8A002B01D07B8A4CE00023FB613A
:1048D00005E0012002F0FAFAFB690133FB61FB1DE0
:1048E0000122244901202BF084FF03467B827B8A2E
:1048F000002B07D1FB795BB2002B03DBFB69B3F51F
:10490000FA7FE6D3FB69B3F5FA7F01D302232AE0ED
:104910007B8A002B01D07B8A25E0F02204211648F7
:104920002BF090FD0346BB81BB89002B01D0BB89D6
:1049300019E00322012111482BF084FD03467B81FD
:104940007B89002B01D07B890DE0082301220C49D3
:1049500001202BF0EAFD03463B813B89002B01D06F
:104960003B8900E0002318462037BD4680BD00BFCC
:1049700058212D600E00010024200018342000185A
:104980000800010080B584B000AF0346FB7102232C
:104990000122062100202BF0C8FD0346FB81FB8984
:1049A000002B01D0FB891CE0012301220F490120CB
:1049B0002BF0BBFD0346BB81BB89002B01D0BB891B
:1049C0000FE0FB79012B0BD10122012108482BF0CC
:1049D00039FD03467B817B89002B01D07B8900E078
:1049E000002318461037BD4680BD00BF0D000100F2
:1049F0004020001880B500AF0822042102482BF0A7
:104A000021FD0346184680BD4020001880B483B0C5
:104A100000AF0346FB71FB79002B03D0064B01224C
:104A20001A7002E0044B00221A70002318460C375B
:104A3000BD465DF8047B70477E25062080B400AF3C
:104A4000034B1B781846BD465DF8047B704700BFDA
:104A50007E25062080B584B000AF0346FB71FB794C
:104A6000012B33D10F2301221B4901202BF05DFDC7
:104A70000346FB81FB89002B01D0FB8927E0002343
:104A80000122164901202BF050FD0346BB81BB8952
:104A9000002B01D0BB891AE002230122104901201A
:104AA0002BF043FD03467B817B89002B01D07B8962
:104AB0000DE0022304220B4901202BF036FD0346B2
:104AC0003B813B89002B01D03B8900E00023184645
:104AD0001037BD4680BD00BF050001000600010083
:104AE000070001006C00001880B592B000AF0346CB
:104AF000FB710023A7F8463000233B6400233B648E
:104B000002230122022100202BF00FFD0346FB8728
:104B1000FB8F002B01D0FB8FE4E13B6C002B02D01C
:104B2000012002F0D3F907F10D0301220221002038
:104B30002BF05FFE0346BB87BB8F002B01D0BB8FE2
:104B4000D0E13B6C01333B643B6CB3F5FA7F01D39E
:104B50000223C7E17B7B022BD2D107F10D03012297
:104B6000072100202BF045FE03467B877B8F002B1F
:104B700001D07B8FB6E17B7B23F0030343F002037C
:104B80000122072100202BF0D0FC03463B873B8FFE
:104B9000002B01D03B8FA5E100233B640BE00120FB
:104BA00002F094F93B6C01333B643B6CB3F5FA7F44
:104BB00001D3022396E140230122102100202BF093
:104BC000B4FC0346A7F84630B7F84630002B14D1A2
:104BD00007F10D030122102100202BF00AFE0346ED
:104BE000A7F84630B7F84630002B06D17B7B402B28
:104BF00003D03B6CB3F5FA7FD1D3B7F84630FB86D0
:104C0000FB8E002B01D0FB8E6CE140230122102192
:104C100000202BF08AFC0346BB86BB8E002B01D004
:104C2000BB8E5FE1402301224FF4887100202BF0FE
:104C30007CFC03467B867B8E002B01D07B8E51E172
:104C4000402301224FF4047100202BF06EFC034638
:104C50003B863B8E002B01D03B8E43E1002301229B
:104C600040F2112100202BF060FC0346FB85FB8DF8
:104C7000002B01D0FB8D35E1072301220421002008
:104C80002BF053FC0346BB85BB8D002B01D0BB8DA5
:104C900028E1FEF73FFC03467B857B8D002B01D08E
:104CA0007B8D1FE100233B6405E0012002F00EF93B
:104CB0003B6C01333B6407F10D030122032100200B
:104CC0002BF097FD0346A7F84630B7F84630002B87
:104CD00008D17B7B03F00203002B03D13B6CB3F5BF
:104CE000FA7FE2D33B6CB3F5FA7F01D30223F9E0FC
:104CF000B7F846303B853B8D002B01D03B8DF1E072
:104D000029230122794901202BF00FFC0346FB8463
:104D1000FB8C002B01D0FB8CE4E000233B6405E01E
:104D2000012002F0D3F83B6C01333B6407F10D0323
:104D300001226E4901202BF05CFD0346A7F84630A6
:104D4000B7F84630002BEBD17B7B03F04003002B00
:104D500002D13B6C632BE3D93B6C632B01D902235B
:104D6000C0E0B7F84630BB84BB8C002B01D0BB8CB5
:104D7000B8E0002301225D4901202BF0D6FB034659
:104D80007B847B8C002B01D07B8CABE00023012249
:104D9000574901202BF0C9FB03463B843B8C002B79
:104DA00001D03B8C9EE006230122022100202BF043
:104DB000BCFB0346FB83FB8B002B01D0FB8B91E0FC
:104DC00007230122F22100202BF0AFFB0346BB8317
:104DD000BB8B002B01D0BB8B84E02BF0FFF803468C
:104DE0001846FFF737FE03467B837B8B002B01D0F1
:104DF0007B8B77E02BF0EBF803463B833B8B002B60
:104E000001D03B8B6EE005230122042100202BF012
:104E10008CFB0346FB82FB8A002B01D0FB8A61E0FE
:104E200007F10D030122032100202BF0E2FC0346D1
:104E3000BB82BB8A002B01D0BB8A53E0FFF7E8FCA2
:104E40000346A7F84630B7F84630002B02D0B7F833
:104E5000463047E000233B6405E0012002F036F8CD
:104E60003B6C01333B6407F10D0301220321002059
:104E70002BF0BFFC0346A7F84630B7F84630002BAE
:104E8000EBD17B7B03F00403002B03D13B6CB3F528
:104E90007A7FE2D33B6CB3F57A7F04D3FB79012BA5
:104EA00001D102231EE02BF05FFA03467B827B8A4E
:104EB000002B01D07B8A15E0FEF7E0FF03463B8222
:104EC0003B8A002B01D03B8A0CE0FFF733F8034606
:104ED000FB81FB89002B01D0FB8903E0054805F02D
:104EE0002BFA002318464837BD4680BD0E0001004E
:104EF0000F00010074212D6080B483B000AF034621
:104F0000FB71064AFB791370054B00221A6000BF43
:104F10000C37BD465DF8047B704700BF7F25062037
:104F20000C69032080B584B000AF0023FB60324BD6
:104F30001B68B3F1FF3F17D0304B1B78002B03D118
:104F40002F4B1B68002B01D0012300E00023FB72D4
:104F5000294B1B682B4A1360274B4FF0FF321A6016
:104F6000FB7A1846FFF7C8FF244B1B78012B12D1A0
:104F7000224B00221A70234B1B68002B25D02CF0EB
:104F80003EF902461F4B1B6813441D4A13601D4B1C
:104F90001B68FB6019E01A4B1B68002B15D02CF026
:104FA0002EF97860164B1A687B68D21A154B1B686D
:104FB0009A4204D8124B1A687B68D31AFB60FB68CC
:104FC000002B02D10E4B00221A60FB68002B0ED082
:104FD000FEF724FF0346002B02D10023FB6006E00E
:104FE0002BF036FC0346002B01D00023FB60FB684E
:104FF00018461037BD4680BD18B402207F25062014
:105000000C69032014B4022080B400AF034B0022CB
:105010001A6000BFBD465DF8047B7047106903202D
:1050200080B584B000AF3B4619460120FEF7DAFA9E
:105030003B6803F03F03002B04D03B6823F03F03A1
:10504000403300E03B683B60154BFB603B68FA680F
:10505000D31ABB60B968012000F024F80346FB8036
:10506000FB88002B01D0FB8815E03B689B08DB43E5
:105070001A043B689B0813433B603B681A460421B3
:10508000F8682BF0DFF90346FB80FB88002B01D08A
:10509000FB8800E0002318461037BD4680BD00BFE6
:1050A000FCFF070080B58CB002AF03463960FB718E
:1050B0004FF480633B620023FB8307F10C02FB7912
:1050C00011461846FEF78EFA0346FB83FB8B002B36
:1050D00040F08E80FB68002B02D10523FB838AE021
:1050E00000237B623B6A9BB204339AB207F1100043
:1050F000002300212BF05EF80346FB83FB8B40F27C
:10510000F23293426AD13B6A5B083B623B6A012BF5
:10511000E8D863E0FB8B002B6CD13B6918462BF081
:1051200076F8B861BB691A1DF87907F10803009396
:105130003B6A796AFEF772FA4DE0314B1B78DBB2BD
:10514000012B07D13B69002118462BF053F80A23A5
:10515000FB8350E0BB6840F2DC52934202D8BB684C
:105160009BB201E040F2DC53FB82386800F04AF861
:105170000346FB83FB8B002B05D03B6900211846BF
:105180002BF038F837E03B68C3F30E02BB690433F9
:10519000F98A00930B46012101202BF0E0F9034628
:1051A000FB83FB8B002B06D03B69002118462BF0BC
:1051B00021F800BF1FE0BA68FB8AD31ABB60FB8AE4
:1051C000BA691344BB61FB8A7A6A13447B62FB8A27
:1051D0003A6813443B60BB68002BAED1FB687A6A27
:1051E0009A4297D33B69002118462BF003F802E05E
:1051F00000BF00E000BFFB8B18462837BD4680BDCE
:105200008025062080B584B000AF786040F2FD3381
:10521000FB817A68294B1340BB60294B1B68BA6835
:105220009A4201D1002345E0254B1A68BB685340E0
:1052300003F07F43002B0DD0BB681B0E01222149D8
:1052400001202BF072F90346FB81FB89002B01D072
:10525000FB892FE01A4B1A68BB68534003F47F03A5
:10526000002B0DD0BB681B0C0122174901202BF02D
:105270005CF90346FB81FB89002B01D0FB8919E017
:105280000F4B1A68BB68534003F47F43002B0DD0CB
:10529000BB681B0A01220D4901202BF046F9034689
:1052A000FB81FB89002B01D0FB8903E0044ABB682A
:1052B0001360002318461037BD4680BD0080FFFFF5
:1052C000106903200C0001000B0001000A0001001E
:1052D00080B582B000AF0346FB71074B1B78FA79AB
:1052E0009A4204D0044AFB79137001F003FC00BF1A
:1052F0000837BD4680BD00BF8125062080B400AFC1
:10530000034B1B781846BD465DF8047B704700BF11
:105310008125062080B584B000AF78600B467B8085
:1053200013463B807B88FB8101202BF01AFD03464E
:10533000002B01D100230DE07B68002B01D13B88BD
:10534000FB81FB890022194604482BF091FD03469E
:10535000BB81BB8918461037BD4680BD90212D60AA
:1053600080B584B000AF7860084611461A460346FF
:10537000FB700B46BB7013467B70FB787A6819464E
:1053800016482BF075FD0346FB81FB89002B01D0ED
:10539000FB891EE097F902307A68194610482BF015
:1053A00067FD0346BB81BB89002B01D0BB8910E0A0
:1053B0007B78FF2B0CD07B787A68194609482BF054
:1053C00057FD03467B817B89002B01D07B8900E060
:1053D000002318461037BD4680BD00BF90212D60C8
:1053E000A0212D60AC212D6080B592B002AF0023CA
:1053F000FB870223FB8600233B634C4B5B68BB624D
:10540000BB6ABB630C237B627B6A03F5AF633B62C1
:10541000386A29F02BFCF861FB69002B7ED03A6AD0
:105420000021F86933F0EDFDBB6BB3F5AF6F03D32B
:105430004FF4AF63FB6201E0BB6BFB62FA697B6A0E
:10544000134407F10C0200931346FA6A396B37488C
:105450002AF04DFE0346FB87FB8F002B30D1FB6803
:10546000FA6A9A4203D040F22C43FB8729E03A6B58
:10547000FB6A13443B63BA6BFB6A9A4203D1FB8E0F
:1054800043F00403FB867A6AFB6A1344FA8E0193A5
:10549000FB6900930223264900202BF0FAF903460A
:1054A000FB87FB8E23F00203FB86BA6BFB6AD31AE1
:1054B000BB63BB6B002B04D0FB8F002BB4D000E090
:1054C00000BFF86933F088FEFB8F002B29D007F16D
:1054D0000803184A042118462BF07EFBB861BB690B
:1054E000002B02D140F20E431CE0B9683A1D0023A4
:1054F00000202BF04DFB0346FB82FB8A002B10D1D2
:105500007B6818462AF083FE38613B69002B08D07F
:105510007B68012118462AF06DFE02E040F2294323
:10552000FB87FB8F18464037BD4680BD1CB4022068
:10553000F43D2D60FC3D2D6080B483B000AF034688
:10554000FB71FB79044A52F8233018460C37BD46EC
:105550005DF8047B704700BF0C3E2D6080B584B0C1
:1055600000AF78600B46FB70224A7B6853602AF0DC
:1055700092FD0346FB81FB89002B04D01E4804F0FA
:10558000DBFEFB8932E0FDF74DFE0346FB81FB8924
:10559000002B04D0194804F0CFFEFB8926E02AF046
:1055A0009EFDFB78012B04D12BF06AF90346FB81A9
:1055B00005E02BF046F9FEF7DBFD0346FB81FB8996
:1055C000002B04D00E4804F0B7FEFB890EE0094B17
:1055D00000221A7001F08CF90346FB81FB89002B35
:1055E00001D0FB8902E0FDF7DBFF002318461037EE
:1055F000BD4680BD2CB40220183E2D60443E2D6077
:10560000743E2D6080B58CB002AF78607B4B1B7808
:10561000012B01D10023ECE02BF086F90021786802
:10562000FFF79CFF0346FB84FB8C002B04D07448DF
:1056300004F082FEFB8CDCE0FFF7D6FE0346FB8421
:10564000FB8C002B04D06F4804F076FEFB8CD0E07E
:1056500007F10C036C4A042118462BF0BDFAF861DF
:10566000FB69002B02D140F20E43C2E0FB6900222D
:105670001A60F9680023002202202BF089FA034601
:10568000FB84FB8C002B05D0FB8CB3F57F7F01D016
:10569000FB8CAEE007F10C035C4A042118462BF0AA
:1056A0009BFAF861FB69002B02D140F20E43A0E0A7
:1056B000FB6901221A60F9680023002202202BF006
:1056C00067FA0346FB842AF036FE0346FB84FB8C14
:1056D000002B01D0FB8C8CE007F10C034C4A0C2111
:1056E00018462BF079FAB861BB69002B02D140F261
:1056F0000E437EE00C220021B86933F082FCBB69C6
:1057000008337B613D4B5B689AB27B691A60BB6969
:105710007B613A4B5B689AB27B691A60374B5B6876
:105720001B0C1A46BB695A60BB695B68002B03D12E
:10573000BB694FF0FF325A60F96800230022022053
:105740002BF026FA0346FB84FB8C002B01D0FB8C4C
:105750004FE000233B620123FB841DE007F10C03B3
:105760002C4A132118462BF037FA38613B69002B7D
:1057700002D140F20E433CE013220021386933F09D
:1057800040FCF9680023002202202BF001FA0346B6
:10579000FB843B6A01333B62FB8C002B02D03B6AEB
:1057A000022BDBD9FB8C002B01D0FB8C21E001F01C
:1057B000BBF907F10C03042118462BF053FAF861EA
:1057C000FB69002B02D140F20E4312E0FB6901227B
:1057D0001A60FA680023009300236E21022000F073
:1057E00025FC0346FB84FB8C002B01D0FB8C00E0E6
:1057F000002318462837BD4680BD00BF2CB40220C8
:10580000903E2D60B83E2D609C3F2D60A83F2D60DE
:10581000B03F2D60B83F2D6080B500AF31482BF010
:1058200093FC0346002B02D040F2F63358E00021EF
:105830002C4801F017FB0346002B02D040F2F63350
:105840004EE029482BF080FC0346002B05D025486C
:105850002BF0C1FC40F2F63342E024482BF074FCFC
:105860000346002B08D020482BF0B5FC1D482BF038
:10587000B2FC40F2F63333E000211C4801F0F2FAAA
:105880000346002B02D040F2F63329E018482BF0F3
:105890005BFC0346002B0BD013482BF09CFC1148FB
:1058A0002BF099FC11482BF096FC40F2F63317E0F0
:1058B00000210F4801F0D6FA0346002B02D040F237
:1058C000F6330DE00B4B00221A600B4B00221A60DE
:1058D0003C220021094833F094FB00F011F800232A
:1058E000184680BD546903205C6903206069032069
:1058F0005069032064690320686903201469032048
:1059000080B400AF084B00221A70084B00221A70B6
:10591000074B00221A70074B01221A7000BFBD46C8
:105920005DF8047B704700BF84250620852506208E
:10593000822506208325062080B582B000AF12485C
:105940002BF049FC11482BF046FC11482BF043FC8E
:1059500010482BF040FC0EE00F4B1B6818462BF054
:10596000A0F978600C4B1B68002118462AF042FC15
:10597000094A7B681360084B1B68002BECD100BF01
:105980000837BD4680BD00BF5C6903205469032011
:1059900060690320506903206469032080B588B0E2
:1059A00000AF786039600023FB610023FB767B68E1
:1059B00018462AF02CFC78617B699B899BB21B02FC
:1059C0001AB27B699B899BB21B0A9BB21BB2134321
:1059D0001BB27B827B8AB3F5006F04D07B8A48F6CA
:1059E000F702934206D17B6818462AF010FC034662
:1059F0000F33FB613B1D6FF0150118462AF01FFCA9
:105A000003463B823B8A002B05D07B680021184669
:105A10002AF0F0FB45E07B6818462AF0F8FBF860B6
:105A20003B68022B05D97B68002118462AF0E2FB6F
:105A300037E0FB6800229A74FB6820229A747B8A04
:105A4000B3F5006F04D07B8A48F6F70293420DD17C
:105A5000FB69002B0AD0FB691B78002B06D0FB6981
:105A60001B78184600F016FF0346FB763B68002BB8
:105A700005D1FB7E0C4AD25CFB68DA7402E0FB685D
:105A8000FA7EDA74386800F08BFE0346DAB2FB68FF
:105A90001A75FB6800225A757B680221184600F0CF
:105AA00095FE2037BD4680BD58B4022080B584B035
:105AB00000AF78607B680433FB60FB685B7803F0C1
:105AC0000F03022B1ADCFB685A79114B1B78D31A8F
:105AD000DAB2104B1A700F4B1B78142B04D8FB68EA
:105AE0005A790B4B1A7009E00A4B1A780A4B1B784B
:105AF0009A4203D9074B1A78074B1A70FB681B7937
:105B00001846FEF783FF00BF1037BD4680BD00BFBB
:105B1000832506208425062085250620B0B590B073
:105B200000AF78607B6818462AF071FBB863BB6BE6
:105B30001A795B791B021343FB86FB8EDB43BB8622
:105B4000BB6BDB889BB2BA8E9A4205D07B68012181
:105B500018462AF04FFB2AE2FB8E0B2B03D9FB8E53
:105B6000B3F5C16F05D97B68012118462AF042FBC5
:105B70001DE2BB6B0833043B1846FFF797FFFB8E13
:105B80000C2B05D17B68012118462AF033FB0EE26D
:105B9000BB6B5B7A03F00F03012B7DD0022B31D05E
:105BA000002B40F0FE81BB6B9B889BB21B2B05D862
:105BB0007B68012118462AF01DFBF8E17B68184636
:105BC0002AF025FBB861BB690433BA69D27A134461
:105BD0007B617B699B683B613B691B0CFB81A54B2F
:105BE0001B88FA899A4207D17B68A34A1360002177
:105BF000A24801F037F9DAE17B68012118462AF062
:105C0000F9FAD4E1BB6B9B889BB2102B05D87B685B
:105C1000012118462AF0EEFAC9E1BB6B0433BA6BD6
:105C2000D27A13443B63BB6BDB7A03F108023B6B14
:105C3000DB789B001344FB623B1DF96A18462AF08F
:105C4000FEFA0346002B05D07B68012118462AF096
:105C5000D1FAACE100F05CFF0346012B10D1884B78
:105C60001B68002B06D0864B1B687A680021104603
:105C700098479CE17B68012118462AF0BBFA96E11F
:105C80007C683B6B9B78184600F018FE034619466B
:105C90002046FDF739FD8AE1BB6B0433BA6BD27A3B
:105CA0001344BB62BB6ADB7801339B00BA6A1344BE
:105CB0007B627B6A9B899BB21B021AB27B6A9B89BF
:105CC0009BB21B0A9BB21BB213431BB27B847B8C1F
:105CD00048F66C02934205D07B68012118462AF0F1
:105CE00089FA64E17B6A133303221946654833F06D
:105CF000DAFA0346002B05D07B68012118462AF00A
:105D000079FA54E17B6A1833FB61FB695B889BB2CB
:105D10001B021AB2FB695B889BB21B0A9BB21BB2C7
:105D200013431BB29AB2FB695A80FB695B681A067F
:105D3000FB695B681B0203F47F031A43FB695B6822
:105D40001B0A03F47F431A43FB695B681B0E134372
:105D50001A46FB695A60FB699B681A06FB699B68D7
:105D60001B0203F47F031A43FB699B681B0A03F4BD
:105D70007F431A43FB699B681B0E1A43FB699A60B9
:105D8000FB69DB681A06FB69DB681B0203F47F030F
:105D90001A43FB69DB681B0A03F47F431A43FB6960
:105DA000DB681B0E1A43FB69DA60FB691B691A0684
:105DB000FB691B691B0203F47F031A43FB691B6920
:105DC0001B0A03F47F431A43FB691B691B0E1A432A
:105DD000FB691A61FB695B691A06FB695B691B0257
:105DE00003F47F031A43FB695B691B0A03F47F43D7
:105DF0001A43FB695B691B0E1A43FB695A61FB6915
:105E00005B69F98E7A6A48321046BA6B0432821A9C
:105E10008A1A934205D97B68012118462AF0EAF9CB
:105E2000C5E07B6A93F846301A46174B53F8223088
:105E3000DAB2FB699A77FB695B682E2B0ED1FB699E
:105E40009B6803F580731A46FB699A60FB69DB68FF
:105E500003F500731A46FB69DA602DE0FB695B68A5
:105E6000172B13D1FB69DB6803F580731A46FB69B6
:105E7000DA6021E0E81D0620586903205C690320F0
:105E80006C690320C43F2D6048B40220FB695B6845
:105E90000B2B03D0FB695B68052B0DD1FB699B685D
:105EA00003F500731A46FB699A60FB69DB6803F52A
:105EB00040731A46FB69DA6000224FF0FF313D481B
:105EC0002BF072F90346002B05D07B6801211846A0
:105ED0002AF090F96BE00023FB8755E0FA8F3649F2
:105EE00013465B0013449B000B441B68002B48D0F7
:105EF0000023BB8736E0FA8F2F4913465B0013441B
:105F00009B000B441A68BB8F9B0013441A68FB6903
:105F10005B689A4223D1FA8F274913465B001344EA
:105F20009B000B4404331D687B6A03F14800FA8F21
:105F3000214913465B0013449B000B4408331B6844
:105F4000FC8F1A460146F869A84701461A4A2346BB
:105F50005B0023449B0013440833196011E0BB8F9E
:105F60000133BB87FA8F144913465B0013449B002F
:105F70000B441A68BB8F9B0013441B68B3F1FF3FAF
:105F8000B9D1FB8F0133FB87FB8F042BA6D90021EE
:105F9000084800F067FF7B68012118462AF02AF9BB
:105FA00005E07B68012118462AF024F900BF40373C
:105FB000BD46B0BD506903201469032090B585B07B
:105FC00000AFB9607A603B600346FB73074B1B6808
:105FD000002B06D0054B1C68F87B3B687A68B968D3
:105FE000A04700BF1437BD4690BD00BF70690320B5
:105FF00080B500AF044B1B68002B02D0024B1B681E
:10600000984700BF80BD00BF7469032080B400AF13
:10601000054B1B68002B14BF01230023DBB218467D
:10602000BD465DF8047B70477069032080B5AEB053
:1060300000AFB9607A603B600346FB73D7F8C030AD
:1060400003F003038F4A52F82330C7F8AC30FFF750
:10605000CFFF00224FF0FF318B482BF0A5F803460D
:10606000A7F8AA30B7F8AA30002B06D0002178682C
:106070002AF0C0F8B7F8AA30FFE078682AF0D3F821
:106080000346203BC7F8B43078682AF0C0F8C7F858
:10609000A400BB6840F20712934203D0BB68B3F57B
:1060A000837F47D1D7F8A4302033C7F8A030D7F882
:1060B000A030C7F8B03004E0D7F8B0300133C7F8EB
:1060C000B030D7F8B0301B78002BF5D0D7F8A0202F
:1060D000D7F8B0309A421BD0D7F8B020D7F8A0300C
:1060E000D31A1A46D7F8B4309B1AC7F8B430D7F889
:1060F000B420D7F8B010D7F8A00032F080FFD7F85E
:10610000B4309BB220339BB2194678682AF0B2F8BB
:10611000FFF77CFF0346012B0CD1D7F8B430802B5E
:1061200028BF80231A4607F11403D7F8A010184699
:1061300032F063FFD7F8A430BA681A61D7F8A430F8
:10614000D7F8B4205A61514B1B8801339AB24F4B98
:106150001A804E4B1B881A04FB7B1A43D7F8AC30CD
:106160001B031A43D7F8A4309A61D7F8A430002251
:106170001A7700225A7700229A770022DA77786815
:106180002AF051F803461A4640F2DC539A4204D9E9
:1061900040F2DC5178682AF06DF80021786800F050
:1061A00015FB002241F2883139482AF0FDFF0346F1
:1061B000A7F8AA30B7F8AA30002B06D00021324841
:1061C00000F050FEB7F8AA3057E0324B1B68184673
:1061D0002AF01DF8C7F89C00D7F89C300433D7F894
:1061E0009C20D27A1344C7F89830D7F898309B682F
:1061F000C7F89430D7F89830DB689BB2C3F5FA63E0
:10620000A7F8AA303B68002B0CD0224B1A683B68D9
:106210001A60D7F89C30DB7A1433194638682AF0B4
:106220000EF805E01B4B1B680121184629F0E2FF20
:10623000184B00221A600021134800F013FE07F1EA
:106240001402F87BD7F8C030B968FFF7B7FED7F86B
:10625000943003F00103002B0ED03B68002B08D0D4
:106260003B681B680121184629F0C4FF3B680022E7
:106270001A60B7F8AA3000E000231846B837BD46C8
:1062800080BD00BF3CB4022054690320E81D0620F5
:106290005C6903205869032080B487B000AFF860C0
:1062A000B9607A603B60FF23FB820023BB8256E02B
:1062B000BA8A434913465B0013449B000B441B6896
:1062C000FA689A4239D1BA8A3D4913465B001344B1
:1062D0009B000B4404331B68BA689A420DD1BA8AFA
:1062E000374913465B0013449B000B4408331B687B
:1062F0007A689A4201D100235BE0BA8A304913469A
:106300005B0013449B000B4400221A60BA8A2C499C
:1063100013465B0013449B000B44043300221A60B5
:10632000BA8A274913465B0013449B000B44083389
:1063300000221A60BB8AFB8214E0FB8AFF2B0BD180
:10634000BA8A1F4913465B0013449B000B441B6829
:10635000002B01D1BB8AFB82BB8A0133BB82BB8A83
:10636000042BA5D9BB68002B22D0FB8AFF2B02D1BE
:1063700040F2F5331DE0FA8A114913465B001344DD
:106380009B000B440433BA681A60FA8A0C4913461E
:106390005B0013449B000B4408337A681A60FA8A46
:1063A000074913465B0013449B000B44FA681A60CC
:1063B000002318461C37BD465DF8047B704700BFBC
:1063C0001469032080B58AB000AF7860396000237B
:1063D00087F823300023FB610023BB6100237B612E
:1063E0000023FB843AE0FA8C424913465B001344D5
:1063F0009B000B441B68002B2DD00023BB841BE0AB
:10640000FA8C3C4913465B0013449B000B441A680A
:10641000BB8C9B0013441B68FB60FB687F2B08D977
:10642000012387F82330FA68FB699A4201D9FB6897
:10643000FB61BB8C0133BB84FA8C2E4913465B0095
:1064400013449B000B441A68BB8C9B0013441B68CD
:10645000B3F1FF3FD4D1FB8C0133FB84FB8C042BC5
:10646000C1D997F82330002B13D1234A172178681C
:106470002AF0B2FB78617B69002B01D1002334E064
:10648000386800F08DF902467B691A607B69043335
:106490002BE0FB690833DB08FB74FB7C9BB2093300
:1064A0009BB2164A194678682AF096FB78617B6998
:1064B000002B01D1002318E0386800F071F9024682
:1064C0007B691A607B690433BB6105220021B869CE
:1064D00032F097FDBB6901221A70BB6903225A7022
:1064E000BB69FA7C9A70BB69043318462837BD46ED
:1064F00080BD00BF14690320C83F2D60DC3F2D60C4
:1065000090B58BB000AFF860B9607A603B60002254
:106510004FF0FF315F482AF047FE03467B847B8CB7
:10652000002B01D07B8CB0E03B687A68B968F868D2
:10653000FFF7B2FE03467B847B8C002B40F09F80EC
:1065400007F1140339681846FFF73CFFF861FB694F
:10655000002B03D140F2F2337B8491E04E4BDB6899
:1065600001334D4AD360FDF789FC03467B83132238
:106570000021F86932F045FD0023FB8463E0FA8CCA
:10658000464913465B0013449B000B441B68002BD9
:1065900056D00023BB8444E0FA8C404913465B008C
:1065A00013449B000B441A68BB8C9B0013441B686C
:1065B000002B00DA0733DB101A46FB691344187806
:1065C000FA8C364913465B0013449B000B441A684F
:1065D000BB8C9B0013441B685A4203F0070302F074
:1065E000070258BF5342012202FA03F3D9B2FA8CD0
:1065F0002A4C13465B0013449B0023441A68BB8C4F
:106600009B0013441B68002B00DA0733DB101A468B
:10661000FB69134440EA0102D2B21A70BB8C013309
:10662000BB84FA8C1D4913465B0013449B000B444A
:106630001A68BB8C9B0013441B68B3F1FF3FABD1BE
:10664000FB8C0133FB84FB8C042B98D9002111486F
:1066500000F008FC79690023002202202AF098FA51
:1066600003467B840C4BDB68013B0B4AD3600A4B2F
:10667000DB68002B01D100F08BF97B8C05E000BFBB
:106680000021044800F0EEFB7B8C18462C37BD46F9
:1066900090BD00BF506903202CB402201469032070
:1066A00080B400AF054B1B68002B01D0012300E034
:1066B00000231846BD465DF8047B704764690320DB
:1066C00080B584B000AF7860274B1B68002B45D0A5
:1066D000FEF7B4F90346012B02D140F2F7333FE055
:1066E000224B1A78224B1B789A4202D14FF47E73C8
:1066F00036E000224FF0FF311E482AF055FD0346D8
:10670000002B02D040F2F6332AE0174B1A687B6860
:106710001A607B681B6818462AF0C3FA0246124BBF
:106720001A60114B1B68002B02D1134B00221A6018
:106730000021104800F096FB7B681B68184629F082
:1067400066FDF860094B1A78FB681A72074B1B78D4
:106750000133DAB2054B1A70002301E040F2F9333D
:1067600018461037BD4680BD646903208225062087
:1067700083250620606903206869032080B400AF88
:10678000054B1A78054B1B78D31ADBB21846BD4669
:106790005DF8047B704700BF832506208225062014
:1067A00080B483B000AF78607B68022B04D8064ABF
:1067B0007B6852F8233000E0002318460C37BD46B2
:1067C0005DF8047B704700BF3CB4022080B584B004
:1067D00000AF78600B46FB70786829F018FDF86010
:1067E000786829F020FD03467B817B89043B7B810F
:1067F000FB6804330C220021184632F002FCFB68CF
:10680000FA785A72FB78022B01D10E2200E00C229A
:10681000FB68DA72FB6800221A72FB687A899A8038
:106820007B89DB439AB2FB68DA8000224FF0FF31AC
:1068300015482AF0B9FC0346002B04D000217868E3
:1068400029F0D8FC1DE0796800202AF038FA0F4BB7
:106850001B68002B05D00D4B1B68194678682AF081
:106860002EFA0A4A7B681360094B1B68002B02D181
:10687000074A7B6813600021034800F0F3FA00F038
:1068800087F81037BD4680BD606903206869032022
:106890006469032080B485B000AF0346FB71FB79C7
:1068A0009B08FB73FB7B044AD35C18461437BD4638
:1068B0005DF8047B704700BFF43F2D6080B485B065
:1068C00000AF0346FB71FB7903F00F03FB60FB682D
:1068D000022B04D8054AFB6852F8233000E000235D
:1068E00018461437BD465DF8047B704748B4022053
:1068F00080B584B002AFFEF78FFF0346FB80FB88B4
:10690000002B01D0FB881FE011482AF035FC03461C
:10691000FB80FB88002B01D0FB8815E00723019347
:1069200040F6B833009300230A4A0B490B482AF07B
:106930009BFB0346FB80FB88002B01D0FB8803E018
:10694000074B01221A70002318460837BD4680BD48
:106950007C69032034402D60B5692060786903208C
:106960008725062080B500AF064B01221A70064B22
:106970001B78DBB2012B03D10121044800F072FA2D
:1069800000BF80BD88250620872506207C6903205E
:1069900080B500AF054B1B78DBB2012B03D1002182
:1069A000034800F05FFA00BF80BD00BF87250620C6
:1069B0007C69032080B584B000AF78601F4B012252
:1069C0001A7024E0002000F0D3F90346FB811C4B31
:1069D0001B78DBB2012B0FD1194B00221A70FDF787
:1069E00005FE0346002B07D02AF0A3F903467B736C
:1069F00097F90D30002BF7D12AF071F903463B735C
:106A000097F90C30002BF7D10E4829F0B4FC0E4B4F
:106A10001B78DBB2012BD5D1084B00221A700A4B30
:106A200000221A7007482AF0D6FBFEF785FF0748B8
:106A30002AF07CFB00BF1037BD4680BD87250620AD
:106A4000882506207C690320862506207869032096
:106A500080B400AF034B1B781846BD465DF8047B3D
:106A6000704700BF8A25062080B586B000AF7860E9
:106A700039601D4B1B683A689A4205D106221B49B2
:106A8000786832F0BAFA29E007F11003184A0621B3
:106A900018462AF0A1F80346002B02D140F20E431B
:106AA0001DE0396907F10C023B6800202AF070F8FC
:106AB0000346FB82FB8A002B01D0FB8A0FE0FB68B8
:106AC000184629F0A4FB034606221946786832F0DE
:106AD00094FAFB680121184629F08CFB0023184624
:106AE0001837BD4680BD00BF54B402208069032022
:106AF0006C422D6080B500AF044B1B68002B02D0A8
:106B0000024B1B68984700BF80BD00BF98690320F7
:106B100080B400AF034B1B781846BD465DF8047B7C
:106B2000704700BF8925062080B582B000AF0E4BAC
:106B30001B78012B04D10D4803F0FEFB00230EE06F
:106B4000002102202AF020FA0346FB80FB88002B5C
:106B500001D0FB8803E0044B01221A700023184681
:106B60000837BD4680BD00BF2CB4022048432D60CD
:106B700080B584B000AF78600B46FB70FB789AB2AA
:106B8000002379680F482AF0C8F90346FB81FB7897
:106B9000194678682AF03AFAB860BB68012B0CD91C
:106BA000BB68013B7A6813441B780A2B05D1BB688C
:106BB000013B7A68134400221A70FB89184610378B
:106BC000BD4680BD64452D6080B586B000AF78605D
:106BD0000B46FB707B6800221A70FB789AB2002388
:106BE000796815482AF099F903467B827B8A002B45
:106BF0001CD17B681B78002B18D0FB78194678686D
:106C00002AF004FAF8607A68FB68134400221A70CC
:106C10007B687B6102E07B6920221A700A21786917
:106C200032F063FB78617B69002BF4D17B8A1846D4
:106C30001837BD4680BD00BF70452D6080B584B05B
:106C400000AF78607B6803F00303FB6000F062F83C
:106C50000346002B04D0FB68002B01D1002352E037
:106C6000FB68032B02D940F201434CE0284AFB6841
:106C700052F82330202B2AD0202B0FD8082B37D0C6
:106C8000082B04D8002B33D0062B37D039E0162B35
:106C900034D01E2B2AD00E2B2DD032E0B3F5837FBB
:106CA0001ED0B3F5837F06D8862B16D0962B14D032
:106CB000462B0FD025E040F20622934213D040F23B
:106CC000162293420FD0B3F58B7F09D019E04FF411
:106CD000806318E040F2254315E040F2264312E0BD
:106CE00040F227430FE04FF485630CE000230AE0F5
:106CF00040F2EE3307E040F2FF3304E040F2EF33BE
:106D000001E040F2014318461037BD4680BD00BF88
:106D10008869032080B400AF064B1B6803F00103B1
:106D2000002B01D0012300E000231846BD465DF88A
:106D3000047B70479C69032080B582B000AF034696
:106D4000FB71084AFB791370074B1B68002B05D0B9
:106D5000054B1B68054A12681046984700BF083764
:106D6000BD4680BD8B250620AC690320B069032099
:106D700080B584B000AF0346FB710023FB73124B58
:106D80001B78DBB2022B1AD1FFF78AFC0346012BDA
:106D900002D0FB79012B02D10023FB7309E0FDF740
:106DA000EFFB0346012B02D10123FB7301E000231B
:106DB00006E0FB7B184600F009F8034600E00023DC
:106DC00018461037BD4680BD8B25062080B584B09F
:106DD00000AF0346FB710023FB811E4B1B78DBB227
:106DE000022B01D0002330E00320FFF7A5FF1A4A51
:106DF000FB791370FEF784FD184B5968174B9A689E
:106E0000164B1B68F8792AF01FF90346FB81FB89B2
:106E1000002B0CD1FB791846FDF766FE0346FB817B
:106E2000FB89002B04D10020FFF786FF00E000BFA4
:106E30000B4AFB891380C82000F048F8FB89002B1F
:106E400002D00220FFF778FFFB8918461037BD46B5
:106E500080BD00BF8B2506208C250620A06903205D
:106E6000EA1D062080B584B000AF78600B46FB7049
:106E7000FB78012B14D17B681B6807F108021146CF
:106E8000184631F0C3FCF860BB68002B10D00E4BE5
:106E90004FF080521A60BFF34F8FBFF36F8F07E040
:106EA0007B68186800230022002120F0D9F8F860E0
:106EB000FB68012B01D1002301E040F2F6331846B4
:106EC0001037BD4680BD00BF04ED00E080B586B040
:106ED00000AF78607B68002B02D0786820F0D4FC8B
:106EE00000237B617B69002B16D00E4B1B680E4A7A
:106EF000A2FB03239B093B610BE07B69FB6002E083
:106F0000FB68013BFB60FB68002BF9D13B69013B4F
:106F10003B613B69002BF0D1002318461837BD4672
:106F200080BD00BFD8C40220D34D6210B0B5BAB046
:106F300004AF012387F8D730374B1B681846FEF79C
:106F400061FB0346A7F8D430B7F8D430002B02D049
:106F5000B7F8D4305CE007F1D003002219462F487F
:106F600029F0A8FF0346A7F8D430B7F8D430002B97
:106F700002D1002387F8D73007F1D0030422002183
:106F8000184632F03EF807F1C80300211846FFF713
:106F90006BFD0346002B17D197F8C830184697F8B9
:106FA000C9301C4697F8CA301D4697F8CB3097F881
:106FB000CC2097F8CD100291019200932B462246E7
:106FC0000146174803F0B8F93B46C8211846FFF7B9
:106FD000CFFD0346002B04D13B461946114803F070
:106FE000ABF93B46C8211846FFF7EEFD0346002BE0
:106FF00004D13B4619460C4803F09EF9012029F0C4
:10700000D8FE052029F0E9FE0A2029F0FAFE002327
:107010001846D837BD46B0BD60B4022030472D6059
:1070200038472D606C472D6084472D6080B586B051
:1070300000AFF860B9607A60FB687B610A4BFA6860
:107040007968B8682AF07FFA03463B617B69D3F818
:10705000B4213B691A447B69C3F8B4213B691846E3
:107060001837BD4680BD00BFC312236090B589B0FC
:1070700000AF78607B683B613B69002B00F0788251
:107080003B69002283F8C0213B6993F8C131002B92
:1070900019D03B69DB6E002B07D03B69DB6E1846CD
:1070A0001BF01EF83B690022DA663B69DB6B002BA4
:1070B00000F05B823B69DB6B18461AF0A3FF3B696B
:1070C0000022DA6351E207F10F03194638692AF00A
:1070D00095F90346002B40F04A82FB7B1B2B04D121
:1070E0003B69012283F8BC2138E23B6993F8BC314B
:1070F000012B0CD1FB7B5B2B04D13B69022283F873
:10710000BC212BE23B69002283F8BC2139E13B69B9
:1071100093F8BC31022B7ED13B69002283F8BC215D
:10712000FB7B413B032B6CD801A252F823F000BF3C
:107130004171206077712060C9712060A371206067
:107140003B69B3F8B831DBB21946386900F08CFB03
:107150003B69B3F8B8311A463B69B3F8BA31013B21
:107160009A4250DA3B69B3F8B83101339AB23B69BD
:10717000A3F8B82147E03B69B3F8B831DBB2194650
:10718000386900F071FB3B69B3F8B831002B3CD093
:107190003B69B3F8B831013B9AB23B69A3F8B82117
:1071A00033E03B6993F8BF31002B30D00122A54971
:1071B000386900F0BBFD3B6993F8BF31013BDAB29F
:1071C0003B6983F8BF2122E03B6993F8BF213B690B
:1071D00093F8BE319A421CD23B6993F8BF317033A9
:1071E0003A691344043301221946386900F09EFDC0
:1071F0003B6993F8BF310133DAB23B6983F8BF21B1
:1072000007E000BFAAE100BFA8E100BFA6E100BF00
:10721000A4E100BFA2E1FB7B092B25D10023FB6188
:1072200007E001228749386900F080FDFB690133DE
:10723000FB613B6993F8BF311A46FB699342F0DB6F
:10724000386900F083FB3B697433184632F09BF8D1
:107250000346DAB23B6983F8BE213B6993F8BE214D
:107260003B6983F8BF2179E1FB7B7F2B03D0FB7B5C
:10727000082B40F086803B6993F8BF31002B00F06B
:107280006A813B6993F8BE31013BDAB23B6983F80E
:10729000BE213B6993F8BF31013BDAB23B6983F809
:1072A000BF213B6993F8BE213B6993F8BF319A42F5
:1072B00058D93B6993F8BF3170333A691344181DAC
:1072C0003B6993F8BF31013370333A691344191D98
:1072D0003B6993F8BE311A463B6993F8BF31D31A24
:1072E0001A4631F08CFE3B6993F8BE311A463B6971
:1072F0001344002283F8742001225249386900F0B7
:1073000015FD3B6993F8BF3170333A6913441C1D76
:107310003B6993F8BF3170333A691344043318461C
:1073200032F031F803461A462146386900F0FEFC77
:1073300003224549386900F0F9FC3B6993F8BF31F5
:10734000BB6107E001223F49386900F0EFFCBB69EF
:107350000133BB613B6993F8BE311A46BB69934266
:10736000F0DDFBE003223949386900F0DFFC3B69BE
:1073700093F8BE311A463B691344002283F8742007
:10738000ECE03B6993F8BE313E2B03D93B69002208
:1073900083F8BE21FB7B0D2B02D0FB7B0A2B5BD13C
:1073A0002B4B1B78002B05D0294B1A78FB7B9A427C
:1073B00040F0D380FA7B264B1A70022225493869A7
:1073C00000F0B4FC3B697433184631F0DCFF03462F
:1073D000002B0DD13B691C6F3B691B6F184631F0C8
:1073E000D2FF03461A462146386900F09FFCB5E0FB
:1073F0003B6974331946386900F0E0F83B690022B4
:1074000083F8BE213B6993F8BE213B6983F8BF2115
:107410003B690022A3F8B8213B691C6F3B691B6FD5
:10742000184631F0B0FF03461A462146386900F08D
:107430007DFC3B69743340220021184631F0E1FDA8
:107440008CE000BFF8472D60FC472D6000482D60A0
:107450008D25062004482D603B6993F8BF213B69C8
:1074600093F8BE319A424ED23B6993F8BF31013353
:1074700070333A691344181D3B6993F8BF31703378
:107480003A691344191D3B6993F8BE311A463B69AA
:1074900093F8BF31D31A1A4631F0B1FD3B6993F826
:1074A000BF311946FA7B3B690B4483F874203B6972
:1074B00093F8BF3170333A6913441C1D3B6993F84C
:1074C000BF3170333A6913440433184631F05BFF1F
:1074D00003461A462146386900F028FC3B6993F8B8
:1074E000BF317B6107E001222349386900F01EFCAF
:1074F0007B6901337B613B6993F8BE311A467B6936
:107500009342F0DB14E03B6993F8BE311946FA7BF5
:107510003B690B4483F874203B6993F8BE317033A8
:107520003A691344043301221946386900F0FEFB1E
:107530000023FB733B6993F8BE310133DAB23B6938
:1075400083F8BE213B6993F8BF310133DAB23B695E
:1075500083F8BF2102E000BF00E000BF3B6993F861
:10756000C131002B3FF490AD02E000BF00E000BF4E
:1075700000BF2437BD4690BDF8472D6080B586B06A
:1075800000AFF860B9607A60FB687B610A4831F04F
:10759000FAFE03461A460849786900F0C7FB7B6982
:1075A000012283F8C121F868FFF760FD0023184627
:1075B0001837BD4680BD00BF08482D60B0B5C8B0C3
:1075C00000AF3B1D18603B4619600023C7F81C3113
:1075D000012387F81731002387F816313B461868D6
:1075E00031F0D1FE034687F8153197F8151107F1F0
:1075F00008023B46186800F04DFAC7F81001D7F8AA
:107600001C31002B70D1D7F81031002B6CDD3B1DE5
:107610001B6818462FF0E4FBC7F818015EE0D7F8A6
:107620001831103BC7F81C31D7F81C311B68C7F85C
:107630000C31D7F80C0131F0A6FE034687F80B3168
:1076400097F80B313A46126813441B78202B07D069
:1076500097F80B313A46126813441B78002B37D148
:1076600007F108031B6897F80B211946D7F80C019E
:1076700029F09EFE0346002B2AD1D7F81C311B7B34
:10768000FF2B03D1002387F817312CE0D7F81C31EA
:107690001B7B002B07D1D7F81031012B03D100231E
:1076A00087F817311FE0D7F81C311B7B002B0BD05C
:1076B000D7F81031013BD7F81C21127B934212D12D
:1076C000002387F817310EE0012387F817310AE00D
:1076D000D7F818012FF090FBC7F81801D7F8183128
:1076E000002B9CD100E000BFD7F81C31002B10D03C
:1076F00097F81731012B0CD1594831F044FE02465E
:107700003B1D5749186800F011FB0023C7F81C31D6
:10771000A1E0D7F81C31002B00F091803B4618689F
:1077200031F031FE034687F8153197F815413B1DBE
:107730001B6803F1B4053B46186831F024FE03468C
:107740001A463B462946186829F032FE03469C42F9
:1077500067D0022387F8163136E097F816313A1DC4
:107760009B01B033126813440433402200211846B1
:1077700031F047FC97F81631013B3A1D9B01B033BD
:10778000126813440433184631F0FDFD034687F8B0
:10779000153197F816313A1D9B01B0331268134426
:1077A000181D97F81631013B3A1D9B01B033126842
:1077B0001344043397F81521194631F01EFC97F84D
:1077C0001631013B87F8163197F81631002BC4D1DA
:1077D0003B1D1B68B43340220021184631F011FCD8
:1077E0003B46186831F0CFFD034687F815313B1D45
:1077F0001B6803F1B40097F815213B46196831F076
:10780000FCFB3B1D1B68B3F8BA31022B09D83B1DAA
:107810001B68B3F8BA3101339AB23B1D1B68A3F859
:10782000BA21D7F81C319B6807F10802381DD7F838
:107830001011006898470023C7F81C310BE0094875
:1078400031F0A1FD02463B1D0649186800F06EFAB2
:107850000023C7F81C3100BF07F59077BD46B0BDC7
:107860001C482D6078482D6090B585B000AF7860D9
:107870000B46FB707B6893F8B430002B04D17B6817
:107880000022A3F8B8215BE0FB78022B01D9022388
:10789000FB707B687433184631F075FDB860BB68C7
:1078A000002B15D07B687433BA680021184631F07C
:1078B000A8FB0023FB7307E003222349786800F04C
:1078C00035FAFB7B0133FB73FB7BBA689A42F3D832
:1078D000FB789B01B0337A6813440433184631F0C7
:1078E00052FD0346DAB27B6883F8BE217B6893F8C9
:1078F000BE217B6883F8BF217B6803F17400FB78AD
:107900009B01B0337A681344191D7B6893F8BE312C
:107910001A4631F072FBFB789B01B0337A6813444E
:107920001C1DFB789B01B0337A681344043318465E
:1079300031F029FD03461A462146786800F0F6F931
:107940001437BD4690BD00BF00482D6090B589B08A
:1079500000AF78600023FB600023BB6100233B6124
:107960007B687433184631F00EFD0346002B00F09F
:107970008A8002224649786800F0D8F97B6893F83B
:107980007430002B05D100220021786829F0DAFC40
:107990007AE07B6818462FF023FA786149E07B692A
:1079A000103BFB60FB681B68BB607B6803F17404E1
:1079B0007B687433184631F0E6FC03461A46B96812
:1079C000204629F0F5FC0346002B2ED1BB69002B85
:1079D00015D1BB683B61386931F0D5FC0346BB610A
:1079E000B86831F0D0FC03461A46B968786800F0F0
:1079F0009DF902222649786800F098F919E0386963
:107A000031F0C1FC03461A46B968386929F0D0FC48
:107A1000F861FB69002B02DAFB695B42FB61FA69E2
:107A2000BB699A4201DAFB69BB6178692FF0E4F91E
:107A300078617B69002BB2D13B69002B06D07B6853
:107A40007433BA693969184631F0D7FA7B681C6F0C
:107A50007B681B6F184631F096FC03461A46214698
:107A6000786800F063F97B6803F174047B68743311
:107A7000184631F088FC03461A462146786800F023
:107A800055F900BF00E000BF2437BD4690BD00BFE0
:107A900004482D6080B588B000AFF860B9607A60A6
:107AA000BB6801331A460021384831F0AAFABA6897
:107AB000F968364831F0A1FA344BBB6100237B6191
:107AC0000023FB6158E0BB6900221A70BB690133D7
:107AD000BB617B6901337B61BB691B78202B03D1C0
